{
  "contractName": "NadraSystem",
  "abi": [
    {
      "anonymous": false,
      "inputs": [
        {
          "indexed": false,
          "internalType": "uint256",
          "name": "Id",
          "type": "uint256"
        },
        {
          "indexed": false,
          "internalType": "string",
          "name": "name",
          "type": "string"
        },
        {
          "indexed": false,
          "internalType": "string",
          "name": "cnic",
          "type": "string"
        },
        {
          "indexed": false,
          "internalType": "string",
          "name": "city",
          "type": "string"
        },
        {
          "indexed": false,
          "internalType": "uint256",
          "name": "dob",
          "type": "uint256"
        }
      ],
      "name": "UserDetails",
      "type": "event"
    },
    {
      "inputs": [],
      "name": "UserCount",
      "outputs": [
        {
          "internalType": "uint256",
          "name": "",
          "type": "uint256"
        }
      ],
      "stateMutability": "view",
      "type": "function",
      "constant": true
    },
    {
      "inputs": [
        {
          "internalType": "uint256",
          "name": "",
          "type": "uint256"
        }
      ],
      "name": "citizenDetails",
      "outputs": [
        {
          "internalType": "string",
          "name": "name",
          "type": "string"
        },
        {
          "internalType": "string",
          "name": "cnic",
          "type": "string"
        },
        {
          "internalType": "string",
          "name": "city",
          "type": "string"
        },
        {
          "internalType": "uint256",
          "name": "dob",
          "type": "uint256"
        }
      ],
      "stateMutability": "view",
      "type": "function",
      "constant": true
    },
    {
      "inputs": [
        {
          "internalType": "string",
          "name": "name",
          "type": "string"
        },
        {
          "internalType": "string",
          "name": "cnic",
          "type": "string"
        },
        {
          "internalType": "string",
          "name": "city",
          "type": "string"
        },
        {
          "internalType": "uint256",
          "name": "dob",
          "type": "uint256"
        }
      ],
      "name": "addDetails",
      "outputs": [],
      "stateMutability": "nonpayable",
      "type": "function"
    },
    {
      "inputs": [
        {
          "internalType": "uint256",
          "name": "Id",
          "type": "uint256"
        }
      ],
      "name": "getDetailsById",
      "outputs": [
        {
          "internalType": "string",
          "name": "",
          "type": "string"
        },
        {
          "internalType": "string",
          "name": "",
          "type": "string"
        },
        {
          "internalType": "string",
          "name": "",
          "type": "string"
        },
        {
          "internalType": "uint256",
          "name": "",
          "type": "uint256"
        }
      ],
      "stateMutability": "view",
      "type": "function",
      "constant": true
    },
    {
      "inputs": [],
      "name": "getAllDetails",
      "outputs": [
        {
          "components": [
            {
              "internalType": "string",
              "name": "name",
              "type": "string"
            },
            {
              "internalType": "string",
              "name": "cnic",
              "type": "string"
            },
            {
              "internalType": "string",
              "name": "city",
              "type": "string"
            },
            {
              "internalType": "uint256",
              "name": "dob",
              "type": "uint256"
            }
          ],
          "internalType": "struct NadraSystem.dataBase[]",
          "name": "",
          "type": "tuple[]"
        }
      ],
      "stateMutability": "view",
      "type": "function",
      "constant": true
    }
  ],
  "bytecode": "0x608060405234801561001057600080fd5b506111de806100206000396000f3fe608060405234801561001057600080fd5b50600436106100575760003560e01c8063159317241461005c57806322d416911461007a578063ba649f4e14610096578063ccc5d7d4146100c9578063d20658b3146100e7575b600080fd5b61006461011a565b60405161007191906108a3565b60405180910390f35b610094600480360381019061008f9190610a44565b610120565b005b6100b060048036038101906100ab9190610aff565b610202565b6040516100c09493929190610bb4565b60405180910390f35b6100d1610415565b6040516100de9190610d9a565b60405180910390f35b61010160048036038101906100fc9190610aff565b61069a565b6040516101119493929190610bb4565b60405180910390f35b60005481565b6040518060800160405280858152602001848152602001838152602001828152506001600080548152602001908152602001600020600082015181600001908161016a9190610fc8565b5060208201518160010190816101809190610fc8565b5060408201518160020190816101969190610fc8565b50606082015181600301559050506000808154809291906101b6906110c9565b91905055507fe8df96ccea16ee06170a31f1c6a276eaa4f48944d3ba3d5a8a869dc23d1688f1600054858585856040516101f4959493929190611111565b60405180910390a150505050565b60608060606000600160008681526020019081526020016000206000016001600087815260200190815260200160002060010160016000888152602001908152602001600020600201600160008981526020019081526020016000206003015483805461026e90610deb565b80601f016020809104026020016040519081016040528092919081815260200182805461029a90610deb565b80156102e75780601f106102bc576101008083540402835291602001916102e7565b820191906000526020600020905b8154815290600101906020018083116102ca57829003601f168201915b505050505093508280546102fa90610deb565b80601f016020809104026020016040519081016040528092919081815260200182805461032690610deb565b80156103735780601f1061034857610100808354040283529160200191610373565b820191906000526020600020905b81548152906001019060200180831161035657829003601f168201915b5050505050925081805461038690610deb565b80601f01602080910402602001604051908101604052809291908181526020018280546103b290610deb565b80156103ff5780601f106103d4576101008083540402835291602001916103ff565b820191906000526020600020905b8154815290600101906020018083116103e257829003601f168201915b5050505050915093509350935093509193509193565b60606000805467ffffffffffffffff811115610434576104336108ed565b5b60405190808252806020026020018201604052801561046d57816020015b61045a610862565b8152602001906001900390816104525790505b50905060005b600054811015610692576000600160008381526020019081526020016000209050806040518060800160405290816000820180546104b090610deb565b80601f01602080910402602001604051908101604052809291908181526020018280546104dc90610deb565b80156105295780601f106104fe57610100808354040283529160200191610529565b820191906000526020600020905b81548152906001019060200180831161050c57829003601f168201915b5050505050815260200160018201805461054290610deb565b80601f016020809104026020016040519081016040528092919081815260200182805461056e90610deb565b80156105bb5780601f10610590576101008083540402835291602001916105bb565b820191906000526020600020905b81548152906001019060200180831161059e57829003601f168201915b505050505081526020016002820180546105d490610deb565b80601f016020809104026020016040519081016040528092919081815260200182805461060090610deb565b801561064d5780601f106106225761010080835404028352916020019161064d565b820191906000526020600020905b81548152906001019060200180831161063057829003601f168201915b5050505050815260200160038201548152505083838151811061067357610672611179565b5b602002602001018190525050808061068a906110c9565b915050610473565b508091505090565b60016020528060005260406000206000915090508060000180546106bd90610deb565b80601f01602080910402602001604051908101604052809291908181526020018280546106e990610deb565b80156107365780601f1061070b57610100808354040283529160200191610736565b820191906000526020600020905b81548152906001019060200180831161071957829003601f168201915b50505050509080600101805461074b90610deb565b80601f016020809104026020016040519081016040528092919081815260200182805461077790610deb565b80156107c45780601f10610799576101008083540402835291602001916107c4565b820191906000526020600020905b8154815290600101906020018083116107a757829003601f168201915b5050505050908060020180546107d990610deb565b80601f016020809104026020016040519081016040528092919081815260200182805461080590610deb565b80156108525780601f1061082757610100808354040283529160200191610852565b820191906000526020600020905b81548152906001019060200180831161083557829003601f168201915b5050505050908060030154905084565b6040518060800160405280606081526020016060815260200160608152602001600081525090565b6000819050919050565b61089d8161088a565b82525050565b60006020820190506108b86000830184610894565b92915050565b6000604051905090565b600080fd5b600080fd5b600080fd5b600080fd5b6000601f19601f8301169050919050565b7f4e487b7100000000000000000000000000000000000000000000000000000000600052604160045260246000fd5b610925826108dc565b810181811067ffffffffffffffff82111715610944576109436108ed565b5b80604052505050565b60006109576108be565b9050610963828261091c565b919050565b600067ffffffffffffffff821115610983576109826108ed565b5b61098c826108dc565b9050602081019050919050565b82818337600083830152505050565b60006109bb6109b684610968565b61094d565b9050828152602081018484840111156109d7576109d66108d7565b5b6109e2848285610999565b509392505050565b600082601f8301126109ff576109fe6108d2565b5b8135610a0f8482602086016109a8565b91505092915050565b610a218161088a565b8114610a2c57600080fd5b50565b600081359050610a3e81610a18565b92915050565b60008060008060808587031215610a5e57610a5d6108c8565b5b600085013567ffffffffffffffff811115610a7c57610a7b6108cd565b5b610a88878288016109ea565b945050602085013567ffffffffffffffff811115610aa957610aa86108cd565b5b610ab5878288016109ea565b935050604085013567ffffffffffffffff811115610ad657610ad56108cd565b5b610ae2878288016109ea565b9250506060610af387828801610a2f565b91505092959194509250565b600060208284031215610b1557610b146108c8565b5b6000610b2384828501610a2f565b91505092915050565b600081519050919050565b600082825260208201905092915050565b60005b83811015610b66578082015181840152602081019050610b4b565b83811115610b75576000848401525b50505050565b6000610b8682610b2c565b610b908185610b37565b9350610ba0818560208601610b48565b610ba9816108dc565b840191505092915050565b60006080820190508181036000830152610bce8187610b7b565b90508181036020830152610be28186610b7b565b90508181036040830152610bf68185610b7b565b9050610c056060830184610894565b95945050505050565b600081519050919050565b600082825260208201905092915050565b6000819050602082019050919050565b600082825260208201905092915050565b6000610c5682610b2c565b610c608185610c3a565b9350610c70818560208601610b48565b610c79816108dc565b840191505092915050565b610c8d8161088a565b82525050565b60006080830160008301518482036000860152610cb08282610c4b565b91505060208301518482036020860152610cca8282610c4b565b91505060408301518482036040860152610ce48282610c4b565b9150506060830151610cf96060860182610c84565b508091505092915050565b6000610d108383610c93565b905092915050565b6000602082019050919050565b6000610d3082610c0e565b610d3a8185610c19565b935083602082028501610d4c85610c2a565b8060005b85811015610d885784840389528151610d698582610d04565b9450610d7483610d18565b925060208a01995050600181019050610d50565b50829750879550505050505092915050565b60006020820190508181036000830152610db48184610d25565b905092915050565b7f4e487b7100000000000000000000000000000000000000000000000000000000600052602260045260246000fd5b60006002820490506001821680610e0357607f821691505b602082108103610e1657610e15610dbc565b5b50919050565b60008190508160005260206000209050919050565b60006020601f8301049050919050565b600082821b905092915050565b600060088302610e7e7fffffffffffffffffffffffffffffffffffffffffffffffffffffffffffffffff82610e41565b610e888683610e41565b95508019841693508086168417925050509392505050565b6000819050919050565b6000610ec5610ec0610ebb8461088a565b610ea0565b61088a565b9050919050565b6000819050919050565b610edf83610eaa565b610ef3610eeb82610ecc565b848454610e4e565b825550505050565b600090565b610f08610efb565b610f13818484610ed6565b505050565b5b81811015610f3757610f2c600082610f00565b600181019050610f19565b5050565b601f821115610f7c57610f4d81610e1c565b610f5684610e31565b81016020851015610f65578190505b610f79610f7185610e31565b830182610f18565b50505b505050565b600082821c905092915050565b6000610f9f60001984600802610f81565b1980831691505092915050565b6000610fb88383610f8e565b9150826002028217905092915050565b610fd182610b2c565b67ffffffffffffffff811115610fea57610fe96108ed565b5b610ff48254610deb565b610fff828285610f3b565b600060209050601f8311600181146110325760008415611020578287015190505b61102a8582610fac565b865550611092565b601f19841661104086610e1c565b60005b8281101561106857848901518255600182019150602085019450602081019050611043565b868310156110855784890151611081601f891682610f8e565b8355505b6001600288020188555050505b505050505050565b7f4e487b7100000000000000000000000000000000000000000000000000000000600052601160045260246000fd5b60006110d48261088a565b91507fffffffffffffffffffffffffffffffffffffffffffffffffffffffffffffffff82036111065761110561109a565b5b600182019050919050565b600060a0820190506111266000830188610894565b81810360208301526111388187610b7b565b9050818103604083015261114c8186610b7b565b905081810360608301526111608185610b7b565b905061116f6080830184610894565b9695505050505050565b7f4e487b7100000000000000000000000000000000000000000000000000000000600052603260045260246000fdfea26469706673582212206e40078d370c5ff0d7e8001efa822ed7d68d5c486fa7332828222c89ada7eea064736f6c634300080f0033",
  "immutableReferences": {},
  "source": "// SPDX-License-Identifier: GPL-3.0\npragma solidity >=0.7.0 <0.9.0;\n\n/**\n * @title NadraSystem\n * @dev Store and Retreive the Citizen Data Store in mapping.\n */\ncontract NadraSystem {\n    struct dataBase {\n        string name;\n        string cnic;\n        string city;\n        uint dob;\n    }\n\n    uint256 public UserCount;\n\n    mapping(uint => dataBase) public citizenDetails;\n\n    event UserDetails(uint Id, string name, string cnic, string city, uint dob);\n\n    /**\n     * @dev addDetails is used to add the citizen.\n     * @param name - name\n     * @param cnic - cnic of the citizen\n     * @param city - city of the citizen\n     * @param dob - dob of the citizen\n     */\n    function addDetails(\n        string memory name,\n        string memory cnic,\n        string memory city,\n        uint dob\n    ) public {\n        citizenDetails[UserCount] = dataBase(name, cnic, city, dob);\n        UserCount++;\n        emit UserDetails(UserCount, name, cnic, city, dob);\n    }\n\n    /**\n     * @dev getDetailsById is used to get the Player with respective Id.\n     */\n    function getDetailsById(uint Id)\n        public\n        view\n        returns (\n            string memory,\n            string memory,\n            string memory,\n            uint256\n        )\n    {\n        return (\n            citizenDetails[Id].name,\n            citizenDetails[Id].cnic,\n            citizenDetails[Id].city,\n            citizenDetails[Id].dob\n        );\n    }\n\n    /**\n     * @dev getAllDetails is used to get the all citizenDetails.\n     */\n    function getAllDetails() public view returns (dataBase[] memory) {\n        dataBase[] memory Id = new dataBase[](UserCount);\n        for (uint i = 0; i < UserCount; i++) {\n            dataBase storage data = citizenDetails[i];\n            Id[i] = data;\n        }\n        return Id;\n    }\n}\n",
  "sourcePath": "D:\\truffle\\contracts\\NadraSystem.sol",
  "compiler": {
    "name": "solc",
    "version": "0.8.15+commit.e14f2714.Emscripten.clang"
  },
  "schemaVersion": "3.4.8",
  "updatedAt": "2022-08-03T18:20:59.971Z",
  "networkType": "ethereum",
  "devdoc": {
    "details": "Store and Retreive the Citizen Data Store in mapping.",
    "kind": "dev",
    "methods": {
      "addDetails(string,string,string,uint256)": {
        "details": "addDetails is used to add the citizen.",
        "params": {
          "city": "- city of the citizen",
          "cnic": "- cnic of the citizen",
          "dob": "- dob of the citizen",
          "name": "- name"
        }
      },
      "getAllDetails()": {
        "details": "getAllDetails is used to get the all citizenDetails."
      },
      "getDetailsById(uint256)": {
        "details": "getDetailsById is used to get the Player with respective Id."
      }
    },
    "title": "NadraSystem",
    "version": 1
  },
  "userdoc": {
    "kind": "user",
    "methods": {},
    "version": 1
  }
}